:100000000C9462000C948A000C948A000C948A0070
:100010000C948A000C948A000C948A000C948A0038
:100020000C948A000C948A000C948A000C948A0028
:100030000C948A000C948A000C948A000C948A0018
:100040000C943A050C948A000C948A000C948A0053
:100050000C948A000C948A000C948A000C948A00F8
:100060000C9484050C948A000000000024002700F2
:100070002A0000000000250028002B0000000000DE
:1000800023002600290004040404040404040202DA
:100090000202020203030303030301020408102007
:1000A0004080010204081020010204081020000012
:1000B0000008000201000003040700000000000027
:1000C0000000A30611241FBECFEFD8E0DEBFCDBFD6
:1000D00011E0A0E0B1E0E4E3F9E102C005900D9287
:1000E000AE3AB107D9F722E0AEEAB1E001C01D9205
:1000F000AE39B207E1F710E0C2E6D0E004C02197C4
:10010000FE010E94920CC136D107C9F70E94DD069C
:100110000C94980C0C9400003F924F925F926F9257
:100120007F928F929F92AF92BF92CF92DF92EF9287
:10013000FF920F931F93CF93DF937C01062F6C01E7
:1001400084E0C80ED11C11E01017A0F5F6018190D3
:100150009190A190B1906F01312EC32DD0E0C1508C
:10016000D04CCC0FDD1FCC0FDD1FF701EC0FFD1FB6
:1001700040805180628073802496CE0DDF1DA301E4
:100180009201C501B4010E949A0A87FF07C0488204
:1001900059826A827B823A943110DFCF84E0389EA4
:1001A000F0011124EE0DFF1D80829182A282B382A4
:1001B0001F5FCACFDF91CF911F910F91FF90EF90FA
:1001C000DF90CF90BF90AF909F908F907F906F9077
:1001D0005F904F903F900895833081F028F48130F4
:1001E00099F08230A9F008958730A9F08830C9F0DD
:1001F0008430B1F4809180008F7D03C080918000B5
:100200008F7780938000089584B58F7784BD08959B
:1002100084B58F7DFBCF8091B0008F778093B00045
:1002200008958091B0008F7DF9CFCF93DF93282F71
:1002300030E0F901E255FF4F8491F901E656FF4F96
:10024000D491F901EA57FF4FC491CC23A1F0811159
:100250000E94EC00EC2FF0E0EE0FFF1FE458FF4F80
:10026000A591B491EC91ED2381E090E009F480E058
:10027000DF91CF91089580E090E0FACF1F93CF9364
:10028000DF93282F30E0F901E255FF4F8491F90107
:10029000E656FF4FD491F901EA57FF4FC491CC23A2
:1002A000A9F0162F81110E94EC00EC2FF0E0EE0F68
:1002B000FF1FEE58FF4FA591B4918FB7F894EC91C2
:1002C000111108C0D095DE23DC938FBFDF91CF9151
:1002D0001F910895DE2BF8CF3FB7F8948091690203
:1002E00090916A02A0916B02B0916C0226B5A89B16
:1002F00005C02F3F19F00196A11DB11D3FBFBA2FB8
:10030000A92F982F8827BC01CD01620F711D811D77
:10031000911D42E0660F771F881F991F4A95D1F7FC
:1003200008958F929F92AF92BF92CF92DF92EF92F9
:10033000FF924B015C010E946C016B017C010E94E9
:100340006C016C197D098E099F09683E7340810517
:100350009105A8F321E0821A9108A108B10888EE5E
:10036000C80E83E0D81EE11CF11C81149104A10485
:10037000B10429F7FF90EF90DF90CF90BF90AF903E
:100380009F908F90089508950895AF92BF92CF9255
:10039000DF92EF92FF920F931F93CF93DF936C0145
:1003A0007B018B01040F151FEB015E01AE18BF0826
:1003B000C017D10759F06991D601ED91FC910190D8
:1003C000F081E02DC6010995892B79F7C501DF91F0
:1003D000CF911F910F91FF90EF90DF90CF90BF9042
:1003E000AF90089520911602260F3327331F213234
:1003F0003105ECF420913A02FC0190E080E02430D9
:1004000069F082E00895A09116022191AC014A5052
:100410005E4FA40FB52FB11D2C930196861798F34C
:1004200080911602680F6093160280E0089581E0C3
:10043000089510923A0281E080933C0210923B02B0
:1004400061E082E10E943E0161E083E10E943E01A1
:10045000E9EBF0E080818E7F808380818D7F8083D7
:1004600088E48093B80085E48093BC000895CF931E
:10047000DF9391E09093F5018823B9F0C091B80023
:10048000D091BA008091BC008A7B8093BC0060E070
:1004900082E10E943E0160E083E10E943E010E94F1
:1004A0001902D093BA00C093B800DF91CF9108959C
:1004B0000895E091670280916602E81730F4F0E059
:1004C000E053FE4F808190E008958FEF9FEF0895F5
:1004D00090916702809166022FEF3FEF981748F4E2
:1004E000E92FF0E0E053FE4F208130E09F5F9093D2
:1004F0006702C90108958091660290916702891B85
:10050000990B0895CF92DF92EF92FF920F931F9372
:10051000CF93DF937C01CB018A012091CF0122236D
:1005200089F0EB016B01C40ED51ECC15DD0569F019
:100530006991D701ED91FC910190F081E02DC70107
:100540000995F3CF642F0E94F201C801DF91CF918A
:100550001F910F91FF90EF90DF90CF900895CF9370
:10056000DF931F92CDB7DEB769832091CF0122239D
:10057000F9F020916402203258F021E030E0FC01D3
:100580003383228390E080E00F90DF91CF91089534
:1005900080916502E82FF0E0E155FE4F998190834C
:1005A0008F5F809365028093640281E090E0ECCFDE
:1005B00061E0CE0101960E94F201F7CFCF92DF9267
:1005C000EF92FF920F931F93CF93DF93FC01C481AF
:1005D00021E02093CF01C093AE01109265021092EA
:1005E00064028385682B81E792E00E94AF02D0917C
:1005F0006402D13208F092C00E946C016B017C0150
:1006000080913A02811165C082E080933A0281E0D4
:1006100080933C028FEF8093390210925E02D09358
:100620005D02AFEAB1E0EDE3F2E080E0D81385C00F
:1006300010925F0280915F02CC0FC82BC0935F02C3
:1006400080913B02813009F07CC010923B020E94F5
:100650006C016B017C0180915F028093BB008091F3
:10066000F1019091F201A091F301B091F401892B75
:100670008A2B8B2B99F00E946C010091F101109153
:10068000F2012091F3013091F4016C197D098E097A
:100690009F090617170728073907E0F18091BC006A
:1006A00083FDD9CF85EC8093BC000E946C016B0167
:1006B0007C0180913A02823009F445C08091390270
:1006C0008F3F61F180913902803241F1809139028E
:1006D00025C08091F1019091F201A091F301B091B8
:1006E000F401892B8A2B8B2B09F48ACF0E946C0191
:1006F0000091F1011091F2012091F3013091F40188
:100700006C197D098E099F090617170728073907F5
:1007100008F076CF8091F0010E94370210926502B6
:10072000109264021092CF01DF91CF911F910F912F
:10073000FF90EF90DF90CF9008959D9191938F5F00
:1007400075CF85EEB0CF8091F1019091F201A0912B
:10075000F301B091F401892B8A2B8B2B09F4A9CFDB
:100760000E946C010091F1011091F2012091F301BE
:100770003091F4016C197D098E099F09061717073E
:100780002807390708F095CFC5CF089590E080E09D
:100790000895EF92FF920F931F93CF93DF93F09002
:1007A0008A02E090890208E010E0C0E0D0E861E051
:1007B0008F2D0E943E018E2D0E941501019709F494
:1007C000CD2B60E08F2D0E943E01D695015011097E
:1007D00071F78C2FDF91CF911F910F91FF90EF90C8
:1007E0000895FF920F931F93CF93DF938091890217
:1007F0000E9415010197D1F310E0F8940E94C903FB
:10080000D82F0E94C903F82E0E94C903082F809197
:100810008B02803829F0803471F0C2E0803261F0C0
:1008200061E080918A020E943E0160E080918A022C
:100830000E943E010DC0C3E061E080918A020E94E7
:100840003E0160E080918A020E943E01C150A1F702
:100850007894D7FD1FEF2FB7F89480916D02909197
:100860006E02A0916F02B09170022FBF809394022C
:1008700090939502A0939602B0939702602F7F2DDC
:100880008D2F912F0E94490BDF91CF911F910F91D6
:10089000FF9008950F931F93CF938C01C62F0E9452
:1008A000DE026C2F6460C8010E94DE026C2F6B7F39
:1008B000C8010E94DE0283EC90E00197F1F7CF912E
:1008C0001F910F9108950F931F93CF93DF938C0186
:1008D000D62FC42F607F642B0E944A0480E1D89FEA
:1008E000B00111246C2BC801DF91CF911F910F91A2
:1008F0000C944A04CF93DF93CDB7DEB728970FB699
:10090000F894DEBF0FBECDBF98E0E1E0F1E0DE017C
:10091000119601900D929A95E1F7909185029817A2
:1009200008F48FEF90E0880F991F21E030E02C0F42
:100930003D1F820F931FFC016081606840E08DE7DE
:1009400092E028960FB6F894DEBF0FBECDBFDF91C0
:10095000CF910C94630441E00E94630481E090E035
:100960000895FC0101900020E9F73197AF01481B81
:10097000590BBC018DE792E00C94C5018F929F92B8
:10098000AF92BF920F931F93CF93DF93CDB7DEB794
:10099000A1970FB6F894DEBF0FBECDBF19A24230AB
:1009A00008F44AE08E010F5D1F4F842E912CB12C6C
:1009B000A12CA50194010E94700CE62FB901CA0177
:1009C000EA30F4F4E05DD801EE938D01232B242B63
:1009D000252B79F790E080E0109719F0CD010E9467
:1009E000B104A1960FB6F894DEBF0FBECDBFDF9164
:1009F000CF911F910F91BF90AF909F908F900895CE
:100A0000E95CE1CF85ED8093BC008091F10190918C
:100A1000F201A091F301B091F4010796A11DB11D5F
:100A200023E0B695A795979587952A95D1F72091BC
:100A3000BC0024FD03C010923A0208954091F101D8
:100A40005091F2016091F3017091F401452B462B16
:100A5000472B69F30097A105B10541F02AE22A95D9
:100A6000F1F700C00197A109B109E1CF8091F00130
:100A70000C9437021F920F920FB60F9211242F93EE
:100A80003F938F939F93AF93BF9380916D0290910B
:100A90006E02A0916F02B09170023091680223E063
:100AA000230F2D3758F50196A11DB11D2093680223
:100AB00080936D0290936E02A0936F02B0937002C8
:100AC0008091690290916A02A0916B02B0916C02D0
:100AD0000196A11DB11D8093690290936A02A093B3
:100AE0006B02B0936C02BF91AF919F918F913F9138
:100AF0002F910F900FBE0F901F90189526E8230F8F
:100B00000296A11DB11DD2CF1F920F920FB60F9268
:100B100011242F933F934F935F936F937F938F9302
:100B20009F93AF93BF93EF93FF938091B900887F1A
:100B3000803609F44AC0F0F5883209F4A7C018F5E8
:100B4000803109F49BC0B8F4882309F4F9C08830D7
:100B500009F494C0FF91EF91BF91AF919F918F9154
:100B60007F916F915F914F913F912F910F900FBEA9
:100B70000F901F901895883109F488C0803251F782
:100B80008093390214C0803409F49DC040F480334E
:100B9000B9F38833F9F68093390285ECB0C080351B
:100BA00009F485C0883509F496C0883499F60E9406
:100BB0000205D0CF883909F48CC038F5883729F080
:100BC00050F4883611F0803729F683E080933A029A
:100BD0001092380257C0883809F47BC0803919F068
:100BE000803809F0B7CF80913802803208F071C0A8
:100BF000E091380281E08E0F809338028091BB0033
:100C0000F0E0E85EFD4F80833DC0803B39F0E0F4CA
:100C1000803A09F479C0883A09F09CCF84E0809347
:100C20003A021092170210921602E0916202F091BD
:100C3000630209958091160281110FC081E08093B3
:100C400016021092F60109C0803C09F4A6CF883C38
:100C500009F4A3CF883B09F07DCFE091170281E032
:100C60008E0F80931702F0E0EA50FE4F8081809350
:100C7000BB00909117028091160229C080915F02FB
:100C80008093BB0085EC8093BC0064CF90915E02A2
:100C900080915D02981758F5E0915E0281E08E0F19
:100CA00080935E02F0E0E35CFD4F8081E9CFE0914C
:100CB0005E0281E08E0F80935E028091BB00F0E0C7
:100CC000E35CFD4F808390915E0280915D029817F6
:100CD000C8F285E8D8CFE0915E0281E08E0F809364
:100CE0005E028091BB00F0E0E35CFD4F8083809169
:100CF0003C0281115CCF81E080933B0284EA8093C7
:100D0000BC0010923A0226CF85EC8093BC00109272
:100D10003A0280913802803230F4E0913802F0E0FB
:100D2000E85EFD4F10826091380270E0E091600251
:100D3000F091610288E192E00995109238020ACFA1
:100D40001092390234CFE1E7F2E01382128288EE8A
:100D500093E0A0E0B0E084839583A683B7838DE021
:100D600091E091838083E9E8F2E080E88283138256
:100D700014821582168280E090E0A0E8BFE38783AA
:100D80009087A187B28713861486158616861786E4
:100D9000108A118A128A138A148AEDE7F2E013820C
:100DA00012828FE191E09183808387E2848380E1E6
:100DB000818782E0828713860895CF93DF93CDB732
:100DC000DEB7EC970FB6F894DEBF0FBECDBF7894B8
:100DD00084B5826084BD84B5816084BD85B5826040
:100DE00085BD85B5816085BD80916E0081608093F1
:100DF0006E0010928100809181008260809381005A
:100E00008091810081608093810080918000816069
:100E1000809380008091B10084608093B1008091C4
:100E2000B00081608093B00080917A0084608093EC
:100E30007A0080917A00826080937A0080917A00B3
:100E4000816080937A0080917A00806880937A0034
:100E50001092C10010926702109266021092650211
:100E6000109264020E94190283EC91E09093630255
:100E70008093620284EC91E090936102809360021F
:100E80001092820280918702823018F098E090934D
:100E900082028093850262E370E080E090E00E942D
:100EA0009101609188028DE792E00E94DE0268EE77
:100EB00073E080E090E00E94910160E38DE792E0B2
:100EC0000E944A040BE416E4C8010197F1F760E3BD
:100ED0008DE792E00E944A04C8010197F1F760E3B0
:100EE0008DE792E00E944A0483E592E00197F1F7D2
:100EF00060E28DE792E00E944A04609182026062A3
:100F000040E08DE792E00E94630484E080938302D6
:100F100040E06CE08DE792E00E94630440E061E015
:100F20008DE792E00E9463040BE31FE1C801019783
:100F3000F1F782E08093840240E066E08DE792E082
:100F40000E94630440E062E08DE792E00E94630447
:100F5000C8010197F1F718E01093880260E08DE76F
:100F600092E00E94DE0287E08093890210938A0259
:100F700010929D02E1EAF0E02491EDE8F0E0849126
:100F80008823C9F090E0880F991FFC01E859FF4FB2
:100F900045915491FC01EE58FF4FA591B4919FB734
:100FA000F894FA0180812095822380838C91E22F2E
:100FB000E823EC939FBF80918A0290E0FC01E65603
:100FC000FF4F24918A579F4FFC018491882399F009
:100FD00090E0880F991FFC01E859FF4FA591B4914B
:100FE000FC01EE58FF4F859194918FB7F894EC91E6
:100FF000E22BEC938FBF60E080918A020E943E0159
:1010000061E080918A020E943E018BEF90E001979F
:10101000F1F760E080918A020E943E0180E88093AF
:101020008B0210928C0210928D0210928E021092FE
:101030008F021092940210929502109296021092D2
:101040009702109298021092990210929A021092AE
:101050009B0210929C0286E891E6A8E1B0E480939E
:10106000900290939102A0939202B09393028E010A
:10107000075D1F4F1E01FDE12F0E311C809189027B
:101080000E941501892B09F0D9C181E00E947A04E0
:1010900087E291E00E94B10480910001882309F465
:1010A0004BC080E00E947A0488E391E00E94B10482
:1010B00068EC70E080E090E00E94910180E00E9486
:1010C0007A0489E491E00E94B10468EC70E080E069
:1010D00090E00E94910180E00E947A048AE591E00C
:1010E0000E94B10468EC70E080E090E00E94910101
:1010F0002AE0B22EC12CD12C76010E94F1039B0173
:10110000AC01C701B6010E942E0A6B017C01BA94A2
:10111000B110F3CF20E030E040E251E40E949F0A9A
:101120000E94110B60938C0270938D0280938E024B
:1011300090938F021092000180E00E947A048BE667
:1011400091E00E94B10468EE73E080E090E00E94BC
:10115000910180919C02823009F48CC0E0F48130CE
:1011600009F4B4C08AE0B82EC12CD12C76010E94BB
:10117000F1039B01AC01C701B6010E942E0A6B016D
:101180007C01BA94B110F3CF20E030E040E251E4AA
:101190000E949F0A06C0833039F0843019F70E94FC
:1011A000F1036B017C011DC00E94F1036B017C0106
:1011B00099E0B92E0E94F103A70196010E942D0A21
:1011C00020E030E040E05FE30E94FE0B9B01AC01B9
:1011D000C701B6010E942E0A6B017C01BA94B110BE
:1011E000E9CF60918C0270918D0280918E02909176
:1011F0008F020E94490B9B01AC01C701B6010E94FE
:101200002D0A2091900230919102409192025091CA
:1012100093020E94FE0B6B017C014B015C0180E09C
:101220000E947A048BE791E00E94B10481E00E9461
:101230007A04A7019601C701B6010E946B0C8823AE
:1012400009F466C08CE891E00E94B1046CED75E091
:1012500080E090E00E94910164E670E080E090E020
:101260000E94910180E090E0892B09F407CF0E9451
:10127000000004CFCE0101967C010E94F103F7012A
:1012800061937193819391937F010E171F07A9F7C3
:101290006AE0CE0101960E948C007E01FDE0EF0E17
:1012A000F11C60E070E0CB01F70121913191419197
:1012B00051917F010E942E0A2E143F04A9F720E0CD
:1012C00030E040E85EE30E94FE0B6BCFCE0101965A
:1012D0007C016C010E94F103F7016193719381938A
:1012E00091937F010E171F07A9F76AE0C6010E94BC
:1012F0008C00298D3A8D4B8D5C8D6D897E898F890F
:10130000988D0E942E0A20E030E040E05FE3DBCFC2
:1013100026013701E89477F82FEF3FEF4FE75FE7BB
:10132000C301B2010E946B0C81110DC02FEF3FEF82
:101330004FE75FE7C301B2010E949A0A18161CF436
:1013400080E991E081CF2FEF3FEF4FE75FE4C701E6
:10135000B6010E94F90B18161CF484E991E074CFD1
:101360002FEF3FEF4FE75FECC701B6010E949A0AEB
:1013700087FDF3CF20E030E0A901C701B6010E944C
:101380009A0A87FF0CC041E06DE28DE792E00E946F
:10139000630446015701B7FAB094B7F8B0942AE055
:1013A00037ED43EA5BE3C501B4010E942E0A4B010D
:1013B0005C010E94180B6B017C010E94470B9B0192
:1013C000AC01C501B4010E942D0A4B015C014AE049
:1013D000C701B6010E94BE0441E06EE28DE792E0D3
:1013E0000E94630420E030E040E251E4C501B40112
:1013F0000E94FE0B4B015C010E94180B6B01F12C4B
:10140000E12C4AE0C701B6010E94BE04C701B60143
:101410000E94470B9B01AC01C501B4010E942D0A3B
:1014200020E030E040E251E40E94FE0B0E94180BE5
:1014300090E080E04AE00E94BE0408CF80E00E9475
:101440007A0488E991E00E94B10481E00E947A0464
:101450008EE991E00E94B104FFCE5058BB27AA2725
:101460000E94450A0C94BF0B0E94B10B38F00E94F9
:10147000B80B20F039F49F3F19F426F40C94AE0B0E
:101480000EF4E095E7FB0C94A80BE92F0E94D00B1B
:1014900058F3BA17620773078407950720F079F4A9
:1014A000A6F50C94F20B0EF4E0950B2EBA2FA02D9E
:1014B0000B01B90190010C01CA01A0011124FF2701
:1014C000591B99F0593F50F4503E68F11A16F040FC
:1014D000A22F232F342F4427585FF3CF46953795FB
:1014E0002795A795F0405395C9F77EF41F16BA0BC0
:1014F000620B730B840BBAF09150A1F0FF0FBB1F6E
:10150000661F771F881FC2F70EC0BA0F621F731FB6
:10151000841F48F4879577956795B795F7959E3F13
:1015200008F0B0CF9395880F08F09927EE0F9795A4
:10153000879508950E94840B08F481E008950E9425
:10154000B30A0C94BF0B0E94B80B58F00E94B10B69
:1015500040F029F45F3F29F00C94A80B51110C9432
:10156000F30B0C94AE0B0E94D00B68F39923B1F3EC
:10157000552391F3951B550BBB27AA2762177307B9
:10158000840738F09F5F5F4F220F331F441FAA1F4D
:10159000A9F335D00E2E3AF0E0E832D09150504009
:1015A000E695001CCAF72BD0FE2F29D0660F771FB7
:1015B000881FBB1F261737074807AB07B0E809F09D
:1015C000BB0B802DBF01FF2793585F4F3AF09E3F22
:1015D000510578F00C94A80B0C94F30B5F3FE4F3E7
:1015E000983ED4F3869577956795B795F7959F5F65
:1015F000C9F7880F911D9695879597F90895E1E0B1
:10160000660F771F881FBB1F621773078407BA070F
:1016100020F0621B730B840BBA0BEE1F88F7E0956A
:1016200008950E94180B6894B1110C94F30B08955F
:101630000E94D80B88F09F5798F0B92F9927B7517F
:10164000B0F0E1F0660F771F881F991F1AF0BA9566
:10165000C9F714C0B13091F00E94F20BB1E00895C7
:101660000C94F20B672F782F8827B85F39F0B93FB9
:10167000CCF3869577956795B395D9F73EF4909519
:101680008095709561957F4F8F4F9F4F0895E89497
:1016900009C097FB3EF490958095709561957F4FBA
:1016A0008F4F9F4F9923A9F0F92F96E9BB27939568
:1016B000F695879577956795B795F111F8CFFAF478
:1016C000BB0F11F460FF1BC06F5F7F4F8F4F9F4FA9
:1016D00016C0882311F096E911C0772321F09EE807
:1016E000872F762F05C0662371F096E8862F70E06D
:1016F00060E02AF09A95660F771F881FDAF7880F47
:101700009695879597F90895990F0008550FAA0B9C
:10171000E0E8FEEF16161706E807F907C0F0121604
:101720001306E407F50798F0621B730B840B950B07
:1017300039F40A2661F0232B242B252B21F408955C
:101740000A2609F4A140A6958FEF811D811D0895F9
:1017500097F99F6780E870E060E008959FEF80EC64
:10176000089500240A941616170618060906089507
:1017700000240A9412161306140605060895092E6D
:101780000394000C11F4882352F0BB0F40F4BF2BDC
:1017900011F460FF04C06F5F7F4F8F4F9F4F08951C
:1017A00057FD9058440F551F59F05F3F71F0479512
:1017B000880F97FB991F61F09F3F79F087950895F7
:1017C000121613061406551FF2CF4695F1DF08C016
:1017D000161617061806991FF1CF86957105610533
:1017E00008940895E894BB2766277727CB0197F9DB
:1017F00008950E94840B08F48FEF08950E94110C45
:101800000C94BF0B0E94B10B38F00E94B80B20F073
:10181000952311F00C94A80B0C94AE0B11240C948E
:10182000F30B0E94D00B70F3959FC1F3950F50E01E
:10183000551F629FF001729FBB27F00DB11D639F82
:10184000AA27F00DB11DAA1F649F6627B00DA11D28
:10185000661F829F2227B00DA11D621F739FB00DCE
:10186000A11D621F839FA00D611D221F749F33273E
:10187000A00D611D231F849F600D211D822F762FD7
:101880006A2F11249F5750409AF0F1F088234AF0B4
:10189000EE0FFF1FBB1F661F771F881F9150504020
:1018A000A9F79E3F510580F00C94A80B0C94F30B04
:1018B0005F3FE4F3983ED4F3869577956795B795A7
:1018C000F795E7959F5FC1F7FE2B880F911D9695C1
:1018D000879597F908950E94840B880B990B0895BA
:1018E000A1E21A2EAA1BBB1BFD010DC0AA1FBB1F24
:1018F000EE1FFF1FA217B307E407F50720F0A21B96
:10190000B30BE40BF50B661F771F881F991F1A9402
:1019100069F760957095809590959B01AC01BD012C
:10192000CF010895EE0FFF1F0590F491E02D09946B
:04193000F894FFCF59
:1019340001000040001400540000000000AF0282C7
:1019440002C60358027B026802590200000000AB81
:1019540004C501C603C50320202020202020202008
:101964002020202020202000546172652E20202079
:10197400202020202020202000546172652E2E205B
:1019840020202020202020202000546172652E2E4B
:101994002E2020202020202020200044616E67205B
:1019A40063616E2E2E2E202020200043616E206461
:1019B400756F633A20202020202020006E616E0085
:1019C400696E66006F7666004858373131004B689F
:0E19D4006F6E672073616E2073616E67000096
:00000001FF
